{"abi":[{"type":"constructor","inputs":[{"name":"aiTokenURI_","type":"address","internalType":"address"}],"stateMutability":"nonpayable"},{"type":"function","name":"tokenURI","inputs":[{"name":"tokenId","type":"uint256","internalType":"uint256"}],"outputs":[{"name":"","type":"string","internalType":"string"}],"stateMutability":"view"},{"type":"function","name":"tokenURIWithSig","inputs":[{"name":"result","type":"bytes","internalType":"bytes"},{"name":"extraData","type":"bytes","internalType":"bytes"}],"outputs":[{"name":"","type":"string","internalType":"string"}],"stateMutability":"view"},{"type":"error","name":"ECDSAInvalidSignature","inputs":[]},{"type":"error","name":"ECDSAInvalidSignatureLength","inputs":[{"name":"length","type":"uint256","internalType":"uint256"}]},{"type":"error","name":"ECDSAInvalidSignatureS","inputs":[{"name":"s","type":"bytes32","internalType":"bytes32"}]}],"bytecode":{"object":"0x608060405234801561001057600080fd5b5060405161099738038061099783398101604081905261002f91610054565b600080546001600160a01b0319166001600160a01b0392909216919091179055610084565b60006020828403121561006657600080fd5b81516001600160a01b038116811461007d57600080fd5b9392505050565b610904806100936000396000f3fe608060405234801561001057600080fd5b50600436106100365760003560e01c80639f3c4b691461003b578063c87b56dd14610064575b600080fd5b61004e6100493660046105c1565b610077565b60405161005b9190610651565b60405180910390f35b61004e610072366004610684565b61027f565b6060600061008783850185610684565b905060008061009887890189610763565b9150915060006101228284866040516020016100b59291906107f2565b60408051601f198184030181529082905280516020918201207f19457468657265756d205369676e6564204d6573736167653a0a33320000000091830191909152603c820152605c016040516020818303038152906040528051906020012061031d90919063ffffffff16565b90508073ffffffffffffffffffffffffffffffffffffffff1660008054906101000a900473ffffffffffffffffffffffffffffffffffffffff1673ffffffffffffffffffffffffffffffffffffffff1663238ac9336040518163ffffffff1660e01b8152600401602060405180830381865afa1580156101a6573d6000803e3d6000fd5b505050506040513d601f19601f820116820180604052508101906101ca9190610814565b73ffffffffffffffffffffffffffffffffffffffff1614610272576040517f08c379a000000000000000000000000000000000000000000000000000000000815260206004820152602560248201527f5369676e6572206973206e6f7420746865207369676e6572206f66207468652060448201527f746f6b656e00000000000000000000000000000000000000000000000000000060648201526084015b60405180910390fd5b5090979650505050505050565b6000546040517fc321118c0000000000000000000000000000000000000000000000000000000081526004810183905260609173ffffffffffffffffffffffffffffffffffffffff169063c321118c90602401600060405180830381865afa1580156102ef573d6000803e3d6000fd5b505050506040513d6000823e601f3d908101601f191682016040526103179190810190610851565b92915050565b60008060008061032d8686610347565b92509250925061033d8282610394565b5090949350505050565b600080600083516041036103815760208401516040850151606086015160001a6103738882858561049c565b95509550955050505061038d565b50508151600091506002905b9250925092565b60008260038111156103a8576103a86108c8565b036103b1575050565b60018260038111156103c5576103c56108c8565b036103fc576040517ff645eedf00000000000000000000000000000000000000000000000000000000815260040160405180910390fd5b6002826003811115610410576104106108c8565b0361044a576040517ffce698f700000000000000000000000000000000000000000000000000000000815260048101829052602401610269565b600382600381111561045e5761045e6108c8565b03610498576040517fd78bce0c00000000000000000000000000000000000000000000000000000000815260048101829052602401610269565b5050565b600080807f7fffffffffffffffffffffffffffffff5d576e7357a4501ddfe92f46681b20a08411156104d7575060009150600390508261056e565b604080516000808252602082018084528a905260ff891692820192909252606081018790526080810186905260019060a0016020604051602081039080840390855afa15801561052b573d6000803e3d6000fd5b5050604051601f19015191505073ffffffffffffffffffffffffffffffffffffffff81166105645750600092506001915082905061056e565b9250600091508190505b9450945094915050565b60008083601f84011261058a57600080fd5b50813567ffffffffffffffff8111156105a257600080fd5b6020830191508360208285010111156105ba57600080fd5b9250929050565b600080600080604085870312156105d757600080fd5b843567ffffffffffffffff808211156105ef57600080fd5b6105fb88838901610578565b9096509450602087013591508082111561061457600080fd5b5061062187828801610578565b95989497509550505050565b60005b83811015610648578181015183820152602001610630565b50506000910152565b602081526000825180602084015261067081604085016020870161062d565b601f01601f19169190910160400192915050565b60006020828403121561069657600080fd5b5035919050565b7f4e487b7100000000000000000000000000000000000000000000000000000000600052604160045260246000fd5b604051601f8201601f1916810167ffffffffffffffff811182821017156106f5576106f561069d565b604052919050565b600067ffffffffffffffff8211156107175761071761069d565b50601f01601f191660200190565b6000610738610733846106fd565b6106cc565b905082815283838301111561074c57600080fd5b828260208301376000602084830101529392505050565b6000806040838503121561077657600080fd5b823567ffffffffffffffff8082111561078e57600080fd5b818501915085601f8301126107a257600080fd5b6107b186833560208501610725565b935060208501359150808211156107c757600080fd5b508301601f810185136107d957600080fd5b6107e885823560208401610725565b9150509250929050565b6000835161080481846020880161062d565b9190910191825250602001919050565b60006020828403121561082657600080fd5b815173ffffffffffffffffffffffffffffffffffffffff8116811461084a57600080fd5b9392505050565b60006020828403121561086357600080fd5b815167ffffffffffffffff81111561087a57600080fd5b8201601f8101841361088b57600080fd5b8051610899610733826106fd565b8181528560208385010111156108ae57600080fd5b6108bf82602083016020860161062d565b95945050505050565b7f4e487b7100000000000000000000000000000000000000000000000000000000600052602160045260246000fdfea164736f6c6343000817000a","linkReferences":{}},"methodIdentifiers":{"tokenURI(uint256)":"c87b56dd","tokenURIWithSig(bytes,bytes)":"9f3c4b69"},"id":23}